{
  "contractName": "Escrow",
  "abi": [
    {
      "inputs": [
        {
          "internalType": "address",
          "name": "_vibra",
          "type": "address"
        },
        {
          "internalType": "uint256",
          "name": "_value",
          "type": "uint256"
        },
        {
          "internalType": "address",
          "name": "_buyer",
          "type": "address"
        },
        {
          "internalType": "address payable",
          "name": "_seller",
          "type": "address"
        }
      ],
      "stateMutability": "nonpayable",
      "type": "constructor"
    },
    {
      "anonymous": false,
      "inputs": [
        {
          "indexed": true,
          "internalType": "address",
          "name": "_from",
          "type": "address"
        },
        {
          "indexed": false,
          "internalType": "uint256",
          "name": "_value",
          "type": "uint256"
        }
      ],
      "name": "Deposit",
      "type": "event"
    },
    {
      "anonymous": false,
      "inputs": [
        {
          "indexed": true,
          "internalType": "address",
          "name": "_to",
          "type": "address"
        },
        {
          "indexed": false,
          "internalType": "uint256",
          "name": "_value",
          "type": "uint256"
        }
      ],
      "name": "Payment",
      "type": "event"
    },
    {
      "inputs": [],
      "name": "buyer",
      "outputs": [
        {
          "internalType": "address",
          "name": "",
          "type": "address"
        }
      ],
      "stateMutability": "view",
      "type": "function"
    },
    {
      "inputs": [],
      "name": "state",
      "outputs": [
        {
          "internalType": "enum Escrow.State",
          "name": "",
          "type": "uint8"
        }
      ],
      "stateMutability": "view",
      "type": "function"
    },
    {
      "inputs": [],
      "name": "value",
      "outputs": [
        {
          "internalType": "uint256",
          "name": "",
          "type": "uint256"
        }
      ],
      "stateMutability": "view",
      "type": "function"
    },
    {
      "inputs": [
        {
          "internalType": "uint256",
          "name": "amount",
          "type": "uint256"
        }
      ],
      "name": "deposit",
      "outputs": [],
      "stateMutability": "nonpayable",
      "type": "function"
    },
    {
      "inputs": [],
      "name": "confirmDelivery",
      "outputs": [],
      "stateMutability": "nonpayable",
      "type": "function"
    }
  ],
  "bytecode": "0x60806040523480156200001157600080fd5b5060405162000c8d38038062000c8d833981810160405281019062000037919062000190565b836000806101000a81548173ffffffffffffffffffffffffffffffffffffffff021916908373ffffffffffffffffffffffffffffffffffffffff1602179055508260018190555081600260016101000a81548173ffffffffffffffffffffffffffffffffffffffff021916908373ffffffffffffffffffffffffffffffffffffffff16021790555080600360006101000a81548173ffffffffffffffffffffffffffffffffffffffff021916908373ffffffffffffffffffffffffffffffffffffffff16021790555033600460006101000a81548173ffffffffffffffffffffffffffffffffffffffff021916908373ffffffffffffffffffffffffffffffffffffffff16021790555050505050620002a7565b6000815190506200015c8162000259565b92915050565b600081519050620001738162000273565b92915050565b6000815190506200018a816200028d565b92915050565b60008060008060808587031215620001ad57620001ac62000254565b5b6000620001bd878288016200014b565b9450506020620001d08782880162000179565b9350506040620001e3878288016200014b565b9250506060620001f68782880162000162565b91505092959194509250565b60006200020f826200022a565b9050919050565b600062000223826200022a565b9050919050565b600073ffffffffffffffffffffffffffffffffffffffff82169050919050565b6000819050919050565b600080fd5b620002648162000202565b81146200027057600080fd5b50565b6200027e8162000216565b81146200028a57600080fd5b50565b62000298816200024a565b8114620002a457600080fd5b50565b6109d680620002b76000396000f3fe608060405234801561001057600080fd5b50600436106100575760003560e01c80633fa4f2451461005c5780635e10177b1461007a5780637150d8ae14610084578063b6b55f25146100a2578063c19d93fb146100be575b600080fd5b6100646100dc565b60405161007191906107ba565b60405180910390f35b6100826100e2565b005b61008c610322565b60405161009991906106c4565b60405180910390f35b6100bc60048036038101906100b791906105f2565b610348565b005b6100c6610588565b6040516100d3919061073f565b60405180910390f35b60015481565b600260019054906101000a900473ffffffffffffffffffffffffffffffffffffffff1673ffffffffffffffffffffffffffffffffffffffff163373ffffffffffffffffffffffffffffffffffffffff161461013c57600080fd5b600160028111156101505761014f610889565b5b600260009054906101000a900460ff16600281111561017257610171610889565b5b146101b2576040517f08c379a00000000000000000000000000000000000000000000000000000000081526004016101a99061077a565b60405180910390fd5b60008054906101000a900473ffffffffffffffffffffffffffffffffffffffff1673ffffffffffffffffffffffffffffffffffffffff1663a9059cbb600360009054906101000a900473ffffffffffffffffffffffffffffffffffffffff166001546040518363ffffffff1660e01b81526004016102319291906106df565b602060405180830381600087803b15801561024b57600080fd5b505af115801561025f573d6000803e3d6000fd5b505050506040513d601f19601f8201168201806040525081019061028391906105c5565b5060028060006101000a81548160ff021916908360028111156102a9576102a8610889565b5b0217905550600360009054906101000a900473ffffffffffffffffffffffffffffffffffffffff1673ffffffffffffffffffffffffffffffffffffffff167fd4f43975feb89f48dd30cabbb32011045be187d1e11c8ea9faa43efc3528251960015460405161031891906107ba565b60405180910390a2565b600260019054906101000a900473ffffffffffffffffffffffffffffffffffffffff1681565b600260019054906101000a900473ffffffffffffffffffffffffffffffffffffffff1673ffffffffffffffffffffffffffffffffffffffff163373ffffffffffffffffffffffffffffffffffffffff16146103a257600080fd5b600060028111156103b6576103b5610889565b5b600260009054906101000a900460ff1660028111156103d8576103d7610889565b5b14610418576040517f08c379a000000000000000000000000000000000000000000000000000000000815260040161040f9061075a565b60405180910390fd5b600154811461045c576040517f08c379a00000000000000000000000000000000000000000000000000000000081526004016104539061079a565b60405180910390fd5b60008054906101000a900473ffffffffffffffffffffffffffffffffffffffff1673ffffffffffffffffffffffffffffffffffffffff166323b872dd3330846040518463ffffffff1660e01b81526004016104b993929190610708565b602060405180830381600087803b1580156104d357600080fd5b505af11580156104e7573d6000803e3d6000fd5b505050506040513d601f19601f8201168201806040525081019061050b91906105c5565b506001600260006101000a81548160ff0219169083600281111561053257610531610889565b5b02179055503373ffffffffffffffffffffffffffffffffffffffff167fe1fffcc4923d04b559f4d29a8bfc6cda04eb5b0d3c460751c2402c5c5cc9109c8260405161057d91906107ba565b60405180910390a250565b600260009054906101000a900460ff1681565b6000815190506105aa81610972565b92915050565b6000813590506105bf81610989565b92915050565b6000602082840312156105db576105da6108b8565b5b60006105e98482850161059b565b91505092915050565b600060208284031215610608576106076108b8565b5b6000610616848285016105b0565b91505092915050565b61062881610841565b82525050565b610637816107e6565b82525050565b61064681610853565b82525050565b6000610659601f836107d5565b9150610664826108bd565b602082019050919050565b600061067c6022836107d5565b9150610687826108e6565b604082019050919050565b600061069f6018836107d5565b91506106aa82610935565b602082019050919050565b6106be81610837565b82525050565b60006020820190506106d9600083018461062e565b92915050565b60006040820190506106f4600083018561061f565b61070160208301846106b5565b9392505050565b600060608201905061071d600083018661062e565b61072a602083018561062e565b61073760408301846106b5565b949350505050565b6000602082019050610754600083018461063d565b92915050565b600060208201905081810360008301526107738161064c565b9050919050565b600060208201905081810360008301526107938161066f565b9050919050565b600060208201905081810360008301526107b381610692565b9050919050565b60006020820190506107cf60008301846106b5565b92915050565b600082825260208201905092915050565b60006107f182610817565b9050919050565b60008115159050919050565b60008190506108128261095e565b919050565b600073ffffffffffffffffffffffffffffffffffffffff82169050919050565b6000819050919050565b600061084c82610865565b9050919050565b600061085e82610804565b9050919050565b600061087082610877565b9050919050565b600061088282610817565b9050919050565b7f4e487b7100000000000000000000000000000000000000000000000000000000600052602160045260246000fd5b600080fd5b7f41206465706f7369742077617320616c726561647920636f6d706c6574656400600082015250565b7f4d75737420626520696e206177616974696e672064656c69766572792073746160008201527f7465000000000000000000000000000000000000000000000000000000000000602082015250565b7f496e636f7272656374206465706f73697420616d6f756e740000000000000000600082015250565b6003811061096f5761096e610889565b5b50565b61097b816107f8565b811461098657600080fd5b50565b61099281610837565b811461099d57600080fd5b5056fea2646970667358221220896fccea1187ef66015191c6832e6c3f912c6d43c6e03e646adbc9157637976564736f6c63430008070033",
  "immutableReferences": {},
  "source": "// SPDX-License-Identifier: MIT\npragma solidity ^0.8.0;\n\nimport \"./Vibra.sol\";\n\ncontract Escrow {\n    enum State {\n        AWAITING_PAYMENT,\n        AWAITING_DELIVERY,\n        COMPLETE\n    }\n\n    event Deposit(address indexed _from, uint256 _value);\n    event Payment(address indexed _to, uint256 _value);\n\n    modifier onlyBuyer() {\n        require(msg.sender == buyer);\n        _;\n    }\n\n    modifier onlyAdmin() {\n        require(msg.sender == admin);\n        _;\n    }\n\n    Vibra private vibra;\n    uint256 public value;\n    State public state;\n    address public buyer;\n    address payable seller;\n    address admin;\n\n    constructor(\n        address _vibra,\n        uint256 _value,\n        address _buyer,\n        address payable _seller\n    ) {\n        vibra = Vibra(_vibra);\n        value = _value;\n        buyer = _buyer;\n        seller = _seller;\n        admin = msg.sender;\n    }\n\n    function deposit(uint256 amount) public onlyBuyer {\n        require(\n            state == State.AWAITING_PAYMENT,\n            \"A deposit was already completed\"\n        );\n        require(amount == value, \"Incorrect deposit amount\");\n\n        vibra.transferFrom(msg.sender, address(this), amount);\n\n        state = State.AWAITING_DELIVERY;\n\n        emit Deposit(msg.sender, amount);\n    }\n\n    function confirmDelivery() public onlyBuyer {\n        require(\n            state == State.AWAITING_DELIVERY,\n            \"Must be in awaiting delivery state\"\n        );\n\n        vibra.transfer(seller, value);\n\n        state = State.COMPLETE;\n\n        emit Payment(seller, value);\n    }\n}\n",
  "sourcePath": "/Users/angelicacolon/Desktop/Vibra-Finance/vibra-contracts/contracts/Escrow.sol",
  "compiler": {
    "name": "solc",
    "version": "0.8.7+commit.e28d00a7.Emscripten.clang"
  },
  "schemaVersion": "3.4.1",
  "updatedAt": "2021-08-11T23:23:42.155Z",
  "devdoc": {
    "kind": "dev",
    "methods": {},
    "version": 1
  },
  "userdoc": {
    "kind": "user",
    "methods": {},
    "version": 1
  }
}