{
  "contractName": "Escrow",
  "abi": [
    {
      "inputs": [
        {
          "internalType": "contract Vibra",
          "name": "_vibra",
          "type": "address"
        },
        {
          "internalType": "uint256",
          "name": "_value",
          "type": "uint256"
        },
        {
          "internalType": "address payable",
          "name": "_seller",
          "type": "address"
        },
        {
          "internalType": "address",
          "name": "_buyer",
          "type": "address"
        }
      ],
      "stateMutability": "nonpayable",
      "type": "constructor"
    },
    {
      "anonymous": false,
      "inputs": [
        {
          "indexed": true,
          "internalType": "address",
          "name": "_from",
          "type": "address"
        },
        {
          "indexed": false,
          "internalType": "uint256",
          "name": "_value",
          "type": "uint256"
        }
      ],
      "name": "Deposit",
      "type": "event"
    },
    {
      "anonymous": false,
      "inputs": [
        {
          "indexed": true,
          "internalType": "address",
          "name": "_to",
          "type": "address"
        },
        {
          "indexed": false,
          "internalType": "uint256",
          "name": "_value",
          "type": "uint256"
        }
      ],
      "name": "Payment",
      "type": "event"
    },
    {
      "inputs": [],
      "name": "buyer",
      "outputs": [
        {
          "internalType": "address",
          "name": "",
          "type": "address"
        }
      ],
      "stateMutability": "view",
      "type": "function"
    },
    {
      "inputs": [],
      "name": "state",
      "outputs": [
        {
          "internalType": "enum Escrow.State",
          "name": "",
          "type": "uint8"
        }
      ],
      "stateMutability": "view",
      "type": "function"
    },
    {
      "inputs": [],
      "name": "value",
      "outputs": [
        {
          "internalType": "uint256",
          "name": "",
          "type": "uint256"
        }
      ],
      "stateMutability": "view",
      "type": "function"
    },
    {
      "inputs": [],
      "name": "vibra",
      "outputs": [
        {
          "internalType": "contract Vibra",
          "name": "",
          "type": "address"
        }
      ],
      "stateMutability": "view",
      "type": "function"
    },
    {
      "inputs": [
        {
          "internalType": "uint256",
          "name": "amount",
          "type": "uint256"
        }
      ],
      "name": "deposit",
      "outputs": [],
      "stateMutability": "nonpayable",
      "type": "function"
    },
    {
      "inputs": [],
      "name": "confirmDelivery",
      "outputs": [],
      "stateMutability": "nonpayable",
      "type": "function"
    }
  ],
  "bytecode": "0x60806040523480156200001157600080fd5b5060405162000aeb38038062000aeb8339818101604052810190620000379190620001a7565b836000806101000a81548173ffffffffffffffffffffffffffffffffffffffff021916908373ffffffffffffffffffffffffffffffffffffffff1602179055508260018190555081600360006101000a81548173ffffffffffffffffffffffffffffffffffffffff021916908373ffffffffffffffffffffffffffffffffffffffff16021790555080600260016101000a81548173ffffffffffffffffffffffffffffffffffffffff021916908373ffffffffffffffffffffffffffffffffffffffff16021790555033600460006101000a81548173ffffffffffffffffffffffffffffffffffffffff021916908373ffffffffffffffffffffffffffffffffffffffff16021790555050505050620002ec565b6000815190506200015c8162000284565b92915050565b60008151905062000173816200029e565b92915050565b6000815190506200018a81620002b8565b92915050565b600081519050620001a181620002d2565b92915050565b60008060008060808587031215620001c457620001c36200027f565b5b6000620001d48782880162000179565b9450506020620001e78782880162000190565b9350506040620001fa8782880162000162565b92505060606200020d878288016200014b565b91505092959194509250565b6000620002268262000255565b9050919050565b60006200023a8262000255565b9050919050565b60006200024e8262000219565b9050919050565b600073ffffffffffffffffffffffffffffffffffffffff82169050919050565b6000819050919050565b600080fd5b6200028f8162000219565b81146200029b57600080fd5b50565b620002a9816200022d565b8114620002b557600080fd5b50565b620002c38162000241565b8114620002cf57600080fd5b50565b620002dd8162000275565b8114620002e957600080fd5b50565b6107ef80620002fc6000396000f3fe608060405234801561001057600080fd5b50600436106100625760003560e01c80633fa4f245146100675780635e10177b14610085578063647771821461008f5780637150d8ae146100ad578063b6b55f25146100cb578063c19d93fb146100e7575b600080fd5b61006f610105565b60405161007c9190610697565b60405180910390f35b61008d61010b565b005b610097610280565b6040516100a49190610661565b60405180910390f35b6100b56102a4565b6040516100c2919061061d565b60405180910390f35b6100e560048036038101906100e091906105b4565b6102ca565b005b6100ef61054a565b6040516100fc919061067c565b60405180910390f35b60015481565b600260019054906101000a900473ffffffffffffffffffffffffffffffffffffffff1673ffffffffffffffffffffffffffffffffffffffff163373ffffffffffffffffffffffffffffffffffffffff161461016557600080fd5b6001600281111561017957610178610743565b5b600260009054906101000a900460ff16600281111561019b5761019a610743565b5b146101a557600080fd5b600360009054906101000a900473ffffffffffffffffffffffffffffffffffffffff1673ffffffffffffffffffffffffffffffffffffffff166108fc479081150290604051600060405180830381858888f1935050505015801561020d573d6000803e3d6000fd5b50600360009054906101000a900473ffffffffffffffffffffffffffffffffffffffff1673ffffffffffffffffffffffffffffffffffffffff167fd4f43975feb89f48dd30cabbb32011045be187d1e11c8ea9faa43efc35282519476040516102769190610697565b60405180910390a2565b60008054906101000a900473ffffffffffffffffffffffffffffffffffffffff1681565b600260019054906101000a900473ffffffffffffffffffffffffffffffffffffffff1681565b600260019054906101000a900473ffffffffffffffffffffffffffffffffffffffff1673ffffffffffffffffffffffffffffffffffffffff163373ffffffffffffffffffffffffffffffffffffffff161461032457600080fd5b6000600281111561033857610337610743565b5b600260009054906101000a900460ff16600281111561035a57610359610743565b5b1461036457600080fd5b600154811461037257600080fd5b60008054906101000a900473ffffffffffffffffffffffffffffffffffffffff1673ffffffffffffffffffffffffffffffffffffffff16633950935133836040518363ffffffff1660e01b81526004016103cd929190610638565b602060405180830381600087803b1580156103e757600080fd5b505af11580156103fb573d6000803e3d6000fd5b505050506040513d601f19601f8201168201806040525081019061041f9190610587565b5060008054906101000a900473ffffffffffffffffffffffffffffffffffffffff1673ffffffffffffffffffffffffffffffffffffffff1663a9059cbb33836040518363ffffffff1660e01b815260040161047b929190610638565b602060405180830381600087803b15801561049557600080fd5b505af11580156104a9573d6000803e3d6000fd5b505050506040513d601f19601f820116820180604052508101906104cd9190610587565b506001600260006101000a81548160ff021916908360028111156104f4576104f3610743565b5b02179055503373ffffffffffffffffffffffffffffffffffffffff167fe1fffcc4923d04b559f4d29a8bfc6cda04eb5b0d3c460751c2402c5c5cc9109c8260405161053f9190610697565b60405180910390a250565b600260009054906101000a900460ff1681565b60008151905061056c8161078b565b92915050565b600081359050610581816107a2565b92915050565b60006020828403121561059d5761059c610772565b5b60006105ab8482850161055d565b91505092915050565b6000602082840312156105ca576105c9610772565b5b60006105d884828501610572565b91505092915050565b6105ea816106b2565b82525050565b6105f98161070d565b82525050565b61060881610731565b82525050565b61061781610703565b82525050565b600060208201905061063260008301846105e1565b92915050565b600060408201905061064d60008301856105e1565b61065a602083018461060e565b9392505050565b600060208201905061067660008301846105f0565b92915050565b600060208201905061069160008301846105ff565b92915050565b60006020820190506106ac600083018461060e565b92915050565b60006106bd826106e3565b9050919050565b60008115159050919050565b60008190506106de82610777565b919050565b600073ffffffffffffffffffffffffffffffffffffffff82169050919050565b6000819050919050565b60006107188261071f565b9050919050565b600061072a826106e3565b9050919050565b600061073c826106d0565b9050919050565b7f4e487b7100000000000000000000000000000000000000000000000000000000600052602160045260246000fd5b600080fd5b6003811061078857610787610743565b5b50565b610794816106c4565b811461079f57600080fd5b50565b6107ab81610703565b81146107b657600080fd5b5056fea2646970667358221220e879c6673b4060d61003ed1b74cc6082783c8ffa324b0d4173363a5f2ab6bf5864736f6c63430008060033",
  "immutableReferences": {},
  "source": "// SPDX-License-Identifier: MIT\npragma solidity ^0.8.0;\n\nimport \"./Vibra.sol\";\n\ncontract Escrow {\n    enum State {\n        AWAITING_PAYMENT,\n        AWAITING_DELIVERY,\n        COMPLETE\n    }\n\n    event Deposit(address indexed _from, uint256 _value);\n    event Payment(address indexed _to, uint256 _value);\n\n    modifier onlyBuyer() {\n        require(msg.sender == buyer);\n        _;\n    }\n\n    modifier onlyAdmin() {\n        require(msg.sender == admin);\n        _;\n    }\n\n    Vibra public vibra;\n    uint256 public value;\n    State public state;\n    address public buyer;\n    address payable seller;\n    address admin;\n\n    constructor(\n        Vibra _vibra,\n        uint256 _value,\n        address payable _seller,\n        address _buyer\n    ) public {\n        vibra = _vibra;\n        value = _value;\n        seller = _seller;\n        buyer = _buyer;\n        admin = msg.sender;\n    }\n\n    function deposit(uint256 amount) public onlyBuyer {\n        require(state == State.AWAITING_PAYMENT);\n        require(amount == value);\n\n        vibra.increaseAllowance(msg.sender, amount);\n        vibra.transfer(msg.sender, amount);\n\n        state = State.AWAITING_DELIVERY;\n      \n        emit Deposit(msg.sender, amount);\n    }\n\n    function confirmDelivery() public onlyBuyer {\n        require(state == State.AWAITING_DELIVERY);\n\n        seller.transfer(address(this).balance);\n\n        emit Payment(seller, address(this).balance);\n    }\n}\n",
  "sourcePath": "/Users/serpiente/Development/JavaScript/Projects/Blockchain/Vibra-Finance/vibra-contracts/contracts/Escrow.sol",
  "compiler": {
    "name": "solc",
    "version": "0.8.6+commit.11564f7e.Emscripten.clang"
  },
  "schemaVersion": "3.4.1",
  "updatedAt": "2021-08-06T03:38:53.931Z",
  "devdoc": {
    "kind": "dev",
    "methods": {},
    "version": 1
  },
  "userdoc": {
    "kind": "user",
    "methods": {},
    "version": 1
  }
}