{
  "contractName": "Escrow",
  "abi": [
    {
      "inputs": [
        {
          "internalType": "address",
          "name": "_vibra",
          "type": "address"
        },
        {
          "internalType": "uint256",
          "name": "_value",
          "type": "uint256"
        },
        {
          "internalType": "address",
          "name": "_buyer",
          "type": "address"
        },
        {
          "internalType": "address payable",
          "name": "_seller",
          "type": "address"
        }
      ],
      "stateMutability": "nonpayable",
      "type": "constructor"
    },
    {
      "anonymous": false,
      "inputs": [
        {
          "indexed": true,
          "internalType": "address",
          "name": "_from",
          "type": "address"
        },
        {
          "indexed": false,
          "internalType": "uint256",
          "name": "_value",
          "type": "uint256"
        }
      ],
      "name": "Deposit",
      "type": "event"
    },
    {
      "anonymous": false,
      "inputs": [
        {
          "indexed": true,
          "internalType": "address",
          "name": "_to",
          "type": "address"
        },
        {
          "indexed": false,
          "internalType": "uint256",
          "name": "_value",
          "type": "uint256"
        }
      ],
      "name": "Payment",
      "type": "event"
    },
    {
      "inputs": [],
      "name": "buyer",
      "outputs": [
        {
          "internalType": "address",
          "name": "",
          "type": "address"
        }
      ],
      "stateMutability": "view",
      "type": "function",
      "constant": true
    },
    {
      "inputs": [],
      "name": "state",
      "outputs": [
        {
          "internalType": "enum Escrow.State",
          "name": "",
          "type": "uint8"
        }
      ],
      "stateMutability": "view",
      "type": "function",
      "constant": true
    },
    {
      "inputs": [],
      "name": "value",
      "outputs": [
        {
          "internalType": "uint256",
          "name": "",
          "type": "uint256"
        }
      ],
      "stateMutability": "view",
      "type": "function",
      "constant": true
    },
    {
      "inputs": [
        {
          "internalType": "uint256",
          "name": "amount",
          "type": "uint256"
        }
      ],
      "name": "deposit",
      "outputs": [],
      "stateMutability": "nonpayable",
      "type": "function"
    },
    {
      "inputs": [],
      "name": "confirmDelivery",
      "outputs": [],
      "stateMutability": "nonpayable",
      "type": "function"
    },
    {
      "inputs": [],
      "name": "getEscrowBalance",
      "outputs": [
        {
          "internalType": "uint256",
          "name": "",
          "type": "uint256"
        }
      ],
      "stateMutability": "view",
      "type": "function",
      "constant": true
    }
  ],
  "bytecode": "0x60806040523480156200001157600080fd5b5060405162000cca38038062000cca833981810160405281019062000037919062000190565b836000806101000a81548173ffffffffffffffffffffffffffffffffffffffff021916908373ffffffffffffffffffffffffffffffffffffffff1602179055508260018190555081600260016101000a81548173ffffffffffffffffffffffffffffffffffffffff021916908373ffffffffffffffffffffffffffffffffffffffff16021790555080600360006101000a81548173ffffffffffffffffffffffffffffffffffffffff021916908373ffffffffffffffffffffffffffffffffffffffff16021790555033600460006101000a81548173ffffffffffffffffffffffffffffffffffffffff021916908373ffffffffffffffffffffffffffffffffffffffff16021790555050505050620002a7565b6000815190506200015c8162000259565b92915050565b600081519050620001738162000273565b92915050565b6000815190506200018a816200028d565b92915050565b60008060008060808587031215620001ad57620001ac62000254565b5b6000620001bd878288016200014b565b9450506020620001d08782880162000179565b9350506040620001e3878288016200014b565b9250506060620001f68782880162000162565b91505092959194509250565b60006200020f826200022a565b9050919050565b600062000223826200022a565b9050919050565b600073ffffffffffffffffffffffffffffffffffffffff82169050919050565b6000819050919050565b600080fd5b620002648162000202565b81146200027057600080fd5b50565b6200027e8162000216565b81146200028a57600080fd5b50565b62000298816200024a565b8114620002a457600080fd5b50565b610a1380620002b76000396000f3fe608060405234801561001057600080fd5b50600436106100625760003560e01c80633fa4f245146100675780635e10177b146100855780637150d8ae1461008f578063b6b55f25146100ad578063c19d93fb146100c9578063c56e610e146100e7575b600080fd5b61006f610105565b60405161007c91906107f7565b60405180910390f35b61008d61010b565b005b610097610349565b6040516100a491906106f3565b60405180910390f35b6100c760048036038101906100c29190610621565b61036f565b005b6100d16105af565b6040516100de919061077c565b60405180910390f35b6100ef6105c2565b6040516100fc91906107f7565b60405180910390f35b60015481565b600260019054906101000a900473ffffffffffffffffffffffffffffffffffffffff1673ffffffffffffffffffffffffffffffffffffffff163373ffffffffffffffffffffffffffffffffffffffff161461016557600080fd5b60016002811115610179576101786108c6565b5b600260009054906101000a900460ff16600281111561019b5761019a6108c6565b5b146101db576040517f08c379a00000000000000000000000000000000000000000000000000000000081526004016101d2906107b7565b60405180910390fd5b60008054906101000a900473ffffffffffffffffffffffffffffffffffffffff1673ffffffffffffffffffffffffffffffffffffffff166323b872dd30600360009054906101000a900473ffffffffffffffffffffffffffffffffffffffff16476040518463ffffffff1660e01b815260040161025a9392919061070e565b602060405180830381600087803b15801561027457600080fd5b505af1158015610288573d6000803e3d6000fd5b505050506040513d601f19601f820116820180604052508101906102ac91906105f4565b5060028060006101000a81548160ff021916908360028111156102d2576102d16108c6565b5b0217905550600360009054906101000a900473ffffffffffffffffffffffffffffffffffffffff1673ffffffffffffffffffffffffffffffffffffffff167fd4f43975feb89f48dd30cabbb32011045be187d1e11c8ea9faa43efc352825194760405161033f91906107f7565b60405180910390a2565b600260019054906101000a900473ffffffffffffffffffffffffffffffffffffffff1681565b600260019054906101000a900473ffffffffffffffffffffffffffffffffffffffff1673ffffffffffffffffffffffffffffffffffffffff163373ffffffffffffffffffffffffffffffffffffffff16146103c957600080fd5b600060028111156103dd576103dc6108c6565b5b600260009054906101000a900460ff1660028111156103ff576103fe6108c6565b5b1461043f576040517f08c379a000000000000000000000000000000000000000000000000000000000815260040161043690610797565b60405180910390fd5b6001548114610483576040517f08c379a000000000000000000000000000000000000000000000000000000000815260040161047a906107d7565b60405180910390fd5b60008054906101000a900473ffffffffffffffffffffffffffffffffffffffff1673ffffffffffffffffffffffffffffffffffffffff166323b872dd3330846040518463ffffffff1660e01b81526004016104e093929190610745565b602060405180830381600087803b1580156104fa57600080fd5b505af115801561050e573d6000803e3d6000fd5b505050506040513d601f19601f8201168201806040525081019061053291906105f4565b506001600260006101000a81548160ff02191690836002811115610559576105586108c6565b5b02179055503373ffffffffffffffffffffffffffffffffffffffff167fe1fffcc4923d04b559f4d29a8bfc6cda04eb5b0d3c460751c2402c5c5cc9109c826040516105a491906107f7565b60405180910390a250565b600260009054906101000a900460ff1681565b600047905090565b6000815190506105d9816109af565b92915050565b6000813590506105ee816109c6565b92915050565b60006020828403121561060a576106096108f5565b5b6000610618848285016105ca565b91505092915050565b600060208284031215610637576106366108f5565b5b6000610645848285016105df565b91505092915050565b6106578161087e565b82525050565b61066681610823565b82525050565b61067581610890565b82525050565b6000610688601f83610812565b9150610693826108fa565b602082019050919050565b60006106ab602283610812565b91506106b682610923565b604082019050919050565b60006106ce601883610812565b91506106d982610972565b602082019050919050565b6106ed81610874565b82525050565b6000602082019050610708600083018461065d565b92915050565b6000606082019050610723600083018661065d565b610730602083018561064e565b61073d60408301846106e4565b949350505050565b600060608201905061075a600083018661065d565b610767602083018561065d565b61077460408301846106e4565b949350505050565b6000602082019050610791600083018461066c565b92915050565b600060208201905081810360008301526107b08161067b565b9050919050565b600060208201905081810360008301526107d08161069e565b9050919050565b600060208201905081810360008301526107f0816106c1565b9050919050565b600060208201905061080c60008301846106e4565b92915050565b600082825260208201905092915050565b600061082e82610854565b9050919050565b60008115159050919050565b600081905061084f8261099b565b919050565b600073ffffffffffffffffffffffffffffffffffffffff82169050919050565b6000819050919050565b6000610889826108a2565b9050919050565b600061089b82610841565b9050919050565b60006108ad826108b4565b9050919050565b60006108bf82610854565b9050919050565b7f4e487b7100000000000000000000000000000000000000000000000000000000600052602160045260246000fd5b600080fd5b7f41206465706f7369742077617320616c726561647920636f6d706c6574656400600082015250565b7f4d75737420626520696e206177616974696e672064656c69766572792073746160008201527f7465000000000000000000000000000000000000000000000000000000000000602082015250565b7f496e636f7272656374206465706f73697420616d6f756e740000000000000000600082015250565b600381106109ac576109ab6108c6565b5b50565b6109b881610835565b81146109c357600080fd5b50565b6109cf81610874565b81146109da57600080fd5b5056fea264697066735822122017a0d098879fb403a092707915884845a64005140cde9de6f4f0e84b5b988d6464736f6c63430008060033",
  "immutableReferences": {},
  "source": "// SPDX-License-Identifier: MIT\npragma solidity ^0.8.0;\n\nimport \"./Vibra.sol\";\n\ncontract Escrow {\n    enum State {\n        AWAITING_PAYMENT,\n        AWAITING_DELIVERY,\n        COMPLETE\n    }\n\n    event Deposit(address indexed _from, uint256 _value);\n    event Payment(address indexed _to, uint256 _value);\n\n    modifier onlyBuyer() {\n        require(msg.sender == buyer);\n        _;\n    }\n\n    modifier onlyAdmin() {\n        require(msg.sender == admin);\n        _;\n    }\n\n    Vibra private vibra;\n    uint256 public value;\n    State public state;\n    address public buyer;\n    address payable seller;\n    address admin;\n\n    constructor(\n        address _vibra,\n        uint256 _value,\n        address _buyer,\n        address payable _seller\n    ) {\n        vibra = Vibra(_vibra);\n        value = _value;\n        buyer = _buyer;\n        seller = _seller;\n        admin = msg.sender;\n    }\n\n    function deposit(uint256 amount) public onlyBuyer {\n        require(\n            state == State.AWAITING_PAYMENT,\n            \"A deposit was already completed\"\n        );\n        require(amount == value, \"Incorrect deposit amount\");\n\n        vibra.transferFrom(msg.sender, address(this), amount);\n        \n        state = State.AWAITING_DELIVERY;\n\n        emit Deposit(msg.sender, amount);\n    }\n\n    function confirmDelivery() public onlyBuyer {\n        require(\n            state == State.AWAITING_DELIVERY,\n            \"Must be in awaiting delivery state\"\n        );\n\n        vibra.transferFrom(address(this), seller, address(this).balance);\n\n        state = State.COMPLETE;\n        emit Payment(seller, address(this).balance);\n    }\n\n    function getEscrowBalance() external view returns (uint256) {\n        return address(this).balance;\n    }\n}\n",
  "sourcePath": "/Users/serpiente/Development/JavaScript/Projects/Blockchain/Vibra-Finance/vibra-contracts/contracts/Escrow.sol",
  "compiler": {
    "name": "solc",
    "version": "0.8.6+commit.11564f7e.Emscripten.clang"
  },
  "schemaVersion": "3.4.1",
  "updatedAt": "2021-08-10T23:45:13.223Z",
  "networkType": "ethereum",
  "devdoc": {
    "kind": "dev",
    "methods": {},
    "version": 1
  },
  "userdoc": {
    "kind": "user",
    "methods": {},
    "version": 1
  }
}