{
  "contractName": "ItemManager",
  "abi": [
    {
      "anonymous": false,
      "inputs": [
        {
          "indexed": true,
          "internalType": "address",
          "name": "previousOwner",
          "type": "address"
        },
        {
          "indexed": true,
          "internalType": "address",
          "name": "newOwner",
          "type": "address"
        }
      ],
      "name": "OwnershipTransferred",
      "type": "event"
    },
    {
      "anonymous": false,
      "inputs": [
        {
          "indexed": false,
          "internalType": "uint256",
          "name": "_itemIndex",
          "type": "uint256"
        },
        {
          "indexed": false,
          "internalType": "uint256",
          "name": "_step",
          "type": "uint256"
        }
      ],
      "name": "SupplyChainStep",
      "type": "event"
    },
    {
      "inputs": [
        {
          "internalType": "uint256",
          "name": "",
          "type": "uint256"
        }
      ],
      "name": "items",
      "outputs": [
        {
          "internalType": "enum ItemManager.SupplyChainSteps",
          "name": "_step",
          "type": "uint8"
        },
        {
          "internalType": "string",
          "name": "_identifier",
          "type": "string"
        },
        {
          "internalType": "uint256",
          "name": "_priceInWei",
          "type": "uint256"
        }
      ],
      "stateMutability": "view",
      "type": "function"
    },
    {
      "inputs": [],
      "name": "owner",
      "outputs": [
        {
          "internalType": "address",
          "name": "",
          "type": "address"
        }
      ],
      "stateMutability": "view",
      "type": "function"
    },
    {
      "inputs": [],
      "name": "renounceOwnership",
      "outputs": [],
      "stateMutability": "nonpayable",
      "type": "function"
    },
    {
      "inputs": [
        {
          "internalType": "address",
          "name": "newOwner",
          "type": "address"
        }
      ],
      "name": "transferOwnership",
      "outputs": [],
      "stateMutability": "nonpayable",
      "type": "function"
    },
    {
      "inputs": [
        {
          "internalType": "string",
          "name": "_identifier",
          "type": "string"
        },
        {
          "internalType": "uint256",
          "name": "_priceInWei",
          "type": "uint256"
        }
      ],
      "name": "createItem",
      "outputs": [],
      "stateMutability": "nonpayable",
      "type": "function"
    },
    {
      "inputs": [
        {
          "internalType": "uint256",
          "name": "_index",
          "type": "uint256"
        }
      ],
      "name": "triggerPayment",
      "outputs": [],
      "stateMutability": "payable",
      "type": "function"
    },
    {
      "inputs": [
        {
          "internalType": "uint256",
          "name": "_index",
          "type": "uint256"
        }
      ],
      "name": "triggerDelivery",
      "outputs": [],
      "stateMutability": "nonpayable",
      "type": "function"
    }
  ],
  "bytecode": "0x608060405234801561001057600080fd5b5061002d61002261003260201b60201c565b61003a60201b60201c565b6100fe565b600033905090565b60008060009054906101000a900473ffffffffffffffffffffffffffffffffffffffff169050816000806101000a81548173ffffffffffffffffffffffffffffffffffffffff021916908373ffffffffffffffffffffffffffffffffffffffff1602179055508173ffffffffffffffffffffffffffffffffffffffff168173ffffffffffffffffffffffffffffffffffffffff167f8be0079c531659141344cd1fd0a4f28419497f9722a3daafe3b4186f6b6457e060405160405180910390a35050565b61118f8061010d6000396000f3fe6080604052600436106100705760003560e01c80638da5cb5b1161004e5780638da5cb5b146100d1578063bfb231d2146100fc578063cd31831e1461013b578063f2fde38b1461016457610070565b8063715018a614610075578063800fb83f1461008c5780638c551742146100a8575b600080fd5b34801561008157600080fd5b5061008a61018d565b005b6100a660048036038101906100a19190610b64565b610215565b005b3480156100b457600080fd5b506100cf60048036038101906100ca9190610b08565b6103a7565b005b3480156100dd57600080fd5b506100e661053c565b6040516100f39190610c83565b60405180910390f35b34801561010857600080fd5b50610123600480360381019061011e9190610b64565b610565565b60405161013293929190610c9e565b60405180910390f35b34801561014757600080fd5b50610162600480360381019061015d9190610b64565b610624565b005b34801561017057600080fd5b5061018b60048036038101906101869190610adb565b6107da565b005b6101956108d2565b73ffffffffffffffffffffffffffffffffffffffff166101b361053c565b73ffffffffffffffffffffffffffffffffffffffff1614610209576040517f08c379a000000000000000000000000000000000000000000000000000000000815260040161020090610cfc565b60405180910390fd5b61021360006108da565b565b346001600083815260200190815260200160002060020154111561026e576040517f08c379a000000000000000000000000000000000000000000000000000000000815260040161026590610d3c565b60405180910390fd5b6000600281111561028257610281610f75565b5b6001600083815260200190815260200160002060000160009054906101000a900460ff1660028111156102b8576102b7610f75565b5b146102f8576040517f08c379a00000000000000000000000000000000000000000000000000000000081526004016102ef90610d1c565b60405180910390fd5b600180600083815260200190815260200160002060000160006101000a81548160ff0219169083600281111561033157610330610f75565b5b02179055507f8c198761ba3d324d155cbaf96f0ac38a531c085089e49106d95352535a1110c2816001600084815260200190815260200160002060000160009054906101000a900460ff16600281111561038e5761038d610f75565b5b60405161039c929190610d5c565b60405180910390a150565b6103af6108d2565b73ffffffffffffffffffffffffffffffffffffffff166103cd61053c565b73ffffffffffffffffffffffffffffffffffffffff1614610423576040517f08c379a000000000000000000000000000000000000000000000000000000000815260040161041a90610cfc565b60405180910390fd5b8060016000600254815260200190815260200160002060020181905550600060016000600254815260200190815260200160002060000160006101000a81548160ff0219169083600281111561047c5761047b610f75565b5b02179055508160016000600254815260200190815260200160002060010190805190602001906104ad92919061099e565b507f8c198761ba3d324d155cbaf96f0ac38a531c085089e49106d95352535a1110c260025460016000600254815260200190815260200160002060000160009054906101000a900460ff16600281111561050a57610509610f75565b5b604051610518929190610d5c565b60405180910390a16002600081548092919061053390610efd565b91905055505050565b60008060009054906101000a900473ffffffffffffffffffffffffffffffffffffffff16905090565b60016020528060005260406000206000915090508060000160009054906101000a900460ff169080600101805461059b90610e9a565b80601f01602080910402602001604051908101604052809291908181526020018280546105c790610e9a565b80156106145780601f106105e957610100808354040283529160200191610614565b820191906000526020600020905b8154815290600101906020018083116105f757829003601f168201915b5050505050908060020154905083565b61062c6108d2565b73ffffffffffffffffffffffffffffffffffffffff1661064a61053c565b73ffffffffffffffffffffffffffffffffffffffff16146106a0576040517f08c379a000000000000000000000000000000000000000000000000000000000815260040161069790610cfc565b60405180910390fd5b600160028111156106b4576106b3610f75565b5b6001600083815260200190815260200160002060000160009054906101000a900460ff1660028111156106ea576106e9610f75565b5b1461072a576040517f08c379a000000000000000000000000000000000000000000000000000000000815260040161072190610d1c565b60405180910390fd5b60026001600083815260200190815260200160002060000160006101000a81548160ff0219169083600281111561076457610763610f75565b5b02179055507f8c198761ba3d324d155cbaf96f0ac38a531c085089e49106d95352535a1110c2816001600084815260200190815260200160002060000160009054906101000a900460ff1660028111156107c1576107c0610f75565b5b6040516107cf929190610d5c565b60405180910390a150565b6107e26108d2565b73ffffffffffffffffffffffffffffffffffffffff1661080061053c565b73ffffffffffffffffffffffffffffffffffffffff1614610856576040517f08c379a000000000000000000000000000000000000000000000000000000000815260040161084d90610cfc565b60405180910390fd5b600073ffffffffffffffffffffffffffffffffffffffff168173ffffffffffffffffffffffffffffffffffffffff1614156108c6576040517f08c379a00000000000000000000000000000000000000000000000000000000081526004016108bd90610cdc565b60405180910390fd5b6108cf816108da565b50565b600033905090565b60008060009054906101000a900473ffffffffffffffffffffffffffffffffffffffff169050816000806101000a81548173ffffffffffffffffffffffffffffffffffffffff021916908373ffffffffffffffffffffffffffffffffffffffff1602179055508173ffffffffffffffffffffffffffffffffffffffff168173ffffffffffffffffffffffffffffffffffffffff167f8be0079c531659141344cd1fd0a4f28419497f9722a3daafe3b4186f6b6457e060405160405180910390a35050565b8280546109aa90610e9a565b90600052602060002090601f0160209004810192826109cc5760008555610a13565b82601f106109e557805160ff1916838001178555610a13565b82800160010185558215610a13579182015b82811115610a125782518255916020019190600101906109f7565b5b509050610a209190610a24565b5090565b5b80821115610a3d576000816000905550600101610a25565b5090565b6000610a54610a4f84610daa565b610d85565b905082815260208101848484011115610a7057610a6f611007565b5b610a7b848285610e58565b509392505050565b600081359050610a928161112b565b92915050565b600082601f830112610aad57610aac611002565b5b8135610abd848260208601610a41565b91505092915050565b600081359050610ad581611142565b92915050565b600060208284031215610af157610af0611011565b5b6000610aff84828501610a83565b91505092915050565b60008060408385031215610b1f57610b1e611011565b5b600083013567ffffffffffffffff811115610b3d57610b3c61100c565b5b610b4985828601610a98565b9250506020610b5a85828601610ac6565b9150509250929050565b600060208284031215610b7a57610b79611011565b5b6000610b8884828501610ac6565b91505092915050565b610b9a81610df7565b82525050565b610ba981610e46565b82525050565b6000610bba82610ddb565b610bc48185610de6565b9350610bd4818560208601610e67565b610bdd81611016565b840191505092915050565b6000610bf5602683610de6565b9150610c0082611027565b604082019050919050565b6000610c18602083610de6565b9150610c2382611076565b602082019050919050565b6000610c3b602383610de6565b9150610c468261109f565b604082019050919050565b6000610c5e600e83610de6565b9150610c69826110ee565b602082019050919050565b610c7d81610e3c565b82525050565b6000602082019050610c986000830184610b91565b92915050565b6000606082019050610cb36000830186610ba0565b8181036020830152610cc58185610baf565b9050610cd46040830184610c74565b949350505050565b60006020820190508181036000830152610cf581610be8565b9050919050565b60006020820190508181036000830152610d1581610c0b565b9050919050565b60006020820190508181036000830152610d3581610c2e565b9050919050565b60006020820190508181036000830152610d5581610c51565b9050919050565b6000604082019050610d716000830185610c74565b610d7e6020830184610c74565b9392505050565b6000610d8f610da0565b9050610d9b8282610ecc565b919050565b6000604051905090565b600067ffffffffffffffff821115610dc557610dc4610fd3565b5b610dce82611016565b9050602081019050919050565b600081519050919050565b600082825260208201905092915050565b6000610e0282610e1c565b9050919050565b6000819050610e1782611117565b919050565b600073ffffffffffffffffffffffffffffffffffffffff82169050919050565b6000819050919050565b6000610e5182610e09565b9050919050565b82818337600083830152505050565b60005b83811015610e85578082015181840152602081019050610e6a565b83811115610e94576000848401525b50505050565b60006002820490506001821680610eb257607f821691505b60208210811415610ec657610ec5610fa4565b5b50919050565b610ed582611016565b810181811067ffffffffffffffff82111715610ef457610ef3610fd3565b5b80604052505050565b6000610f0882610e3c565b91507fffffffffffffffffffffffffffffffffffffffffffffffffffffffffffffffff821415610f3b57610f3a610f46565b5b600182019050919050565b7f4e487b7100000000000000000000000000000000000000000000000000000000600052601160045260246000fd5b7f4e487b7100000000000000000000000000000000000000000000000000000000600052602160045260246000fd5b7f4e487b7100000000000000000000000000000000000000000000000000000000600052602260045260246000fd5b7f4e487b7100000000000000000000000000000000000000000000000000000000600052604160045260246000fd5b600080fd5b600080fd5b600080fd5b600080fd5b6000601f19601f8301169050919050565b7f4f776e61626c653a206e6577206f776e657220697320746865207a65726f206160008201527f6464726573730000000000000000000000000000000000000000000000000000602082015250565b7f4f776e61626c653a2063616c6c6572206973206e6f7420746865206f776e6572600082015250565b7f4974656d206973206675727468657220696e2074686520737570706c7920636860008201527f61696e0000000000000000000000000000000000000000000000000000000000602082015250565b7f4e6f742066756c6c792070616964000000000000000000000000000000000000600082015250565b6003811061112857611127610f75565b5b50565b61113481610df7565b811461113f57600080fd5b50565b61114b81610e3c565b811461115657600080fd5b5056fea26469706673582212208450d389151684182e2d96753965ee1c50831b063dc233d962d922fa1e44067064736f6c63430008070033",
  "immutableReferences": {},
  "source": "// SPDX-License-Identifier: MIT\npragma solidity >=0.8.0;\n\nimport \"@openzeppelin/contracts/access/Ownable.sol\";\nimport \"./Item.sol\";\n\ncontract ItemManager is Ownable {\n     enum SupplyChainSteps{Created, Paid, Delivered}\n\n     struct S_Item {\n        ItemManager.SupplyChainSteps _step;\n        string _identifier;\n        uint _priceInWei;\n    }\n    mapping(uint => S_Item) public items;\n    uint index;\n\n    event SupplyChainStep(uint _itemIndex, uint _step);\n\n    function createItem(string memory _identifier, uint _priceInWei) public onlyOwner {\n\n        items[index]._priceInWei = _priceInWei;\n        items[index]._step = SupplyChainSteps.Created;\n        items[index]._identifier = _identifier;\n        emit SupplyChainStep(index, uint(items[index]._step));\n        index++;\n    }\n\n     function triggerPayment(uint _index) public payable {\n        require(items[_index]._priceInWei <= msg.value, \"Not fully paid\");\n        require(items[_index]._step == SupplyChainSteps.Created, \"Item is further in the supply chain\");\n        items[_index]._step = SupplyChainSteps.Paid;\n        emit SupplyChainStep(_index, uint(items[_index]._step));\n    }\n\n    function triggerDelivery(uint _index) public onlyOwner {\n        require(items[_index]._step == SupplyChainSteps.Paid, \"Item is further in the supply chain\");\n        items[_index]._step = SupplyChainSteps.Delivered;\n        emit SupplyChainStep(_index, uint(items[_index]._step));\n    }\n}\n\n\n",
  "sourcePath": "/Users/angelicacolon/Desktop/Vibra-Finance/vibra-contracts/contracts/ItemManager.sol",
  "compiler": {
    "name": "solc",
    "version": "0.8.7+commit.e28d00a7.Emscripten.clang"
  },
  "schemaVersion": "3.4.1",
  "updatedAt": "2021-08-11T23:23:42.160Z",
  "devdoc": {
    "kind": "dev",
    "methods": {
      "owner()": {
        "details": "Returns the address of the current owner."
      },
      "renounceOwnership()": {
        "details": "Leaves the contract without owner. It will not be possible to call `onlyOwner` functions anymore. Can only be called by the current owner. NOTE: Renouncing ownership will leave the contract without an owner, thereby removing any functionality that is only available to the owner."
      },
      "transferOwnership(address)": {
        "details": "Transfers ownership of the contract to a new account (`newOwner`). Can only be called by the current owner."
      }
    },
    "version": 1
  },
  "userdoc": {
    "kind": "user",
    "methods": {},
    "version": 1
  }
}