{
  "contractName": "Trust",
  "abi": [
    {
      "inputs": [
        {
          "internalType": "address",
          "name": "_vibra",
          "type": "address"
        },
        {
          "internalType": "address",
          "name": "_beneficiary",
          "type": "address"
        },
        {
          "internalType": "address",
          "name": "_organization",
          "type": "address"
        },
        {
          "internalType": "uint256",
          "name": "_minBalance",
          "type": "uint256"
        }
      ],
      "stateMutability": "nonpayable",
      "type": "constructor"
    },
    {
      "anonymous": false,
      "inputs": [
        {
          "indexed": true,
          "internalType": "address",
          "name": "_from",
          "type": "address"
        },
        {
          "indexed": false,
          "internalType": "uint256",
          "name": "_amount",
          "type": "uint256"
        }
      ],
      "name": "Deposit",
      "type": "event"
    },
    {
      "anonymous": false,
      "inputs": [
        {
          "indexed": true,
          "internalType": "address",
          "name": "_holder",
          "type": "address"
        },
        {
          "indexed": false,
          "internalType": "uint256",
          "name": "_balance",
          "type": "uint256"
        }
      ],
      "name": "LowBalance",
      "type": "event"
    },
    {
      "anonymous": false,
      "inputs": [
        {
          "indexed": true,
          "internalType": "address",
          "name": "_from",
          "type": "address"
        },
        {
          "indexed": true,
          "internalType": "address",
          "name": "_to",
          "type": "address"
        },
        {
          "indexed": false,
          "internalType": "uint256",
          "name": "_amount",
          "type": "uint256"
        }
      ],
      "name": "Payment",
      "type": "event"
    },
    {
      "anonymous": false,
      "inputs": [
        {
          "indexed": true,
          "internalType": "address",
          "name": "_to",
          "type": "address"
        },
        {
          "indexed": false,
          "internalType": "uint256",
          "name": "_amount",
          "type": "uint256"
        }
      ],
      "name": "Withdrawal",
      "type": "event"
    },
    {
      "inputs": [],
      "name": "admin",
      "outputs": [
        {
          "internalType": "address",
          "name": "",
          "type": "address"
        }
      ],
      "stateMutability": "view",
      "type": "function"
    },
    {
      "inputs": [],
      "name": "balance",
      "outputs": [
        {
          "internalType": "uint256",
          "name": "",
          "type": "uint256"
        }
      ],
      "stateMutability": "view",
      "type": "function"
    },
    {
      "inputs": [],
      "name": "beneficiary",
      "outputs": [
        {
          "internalType": "address",
          "name": "",
          "type": "address"
        }
      ],
      "stateMutability": "view",
      "type": "function"
    },
    {
      "inputs": [],
      "name": "minBalance",
      "outputs": [
        {
          "internalType": "uint256",
          "name": "",
          "type": "uint256"
        }
      ],
      "stateMutability": "view",
      "type": "function"
    },
    {
      "inputs": [],
      "name": "organization",
      "outputs": [
        {
          "internalType": "address",
          "name": "",
          "type": "address"
        }
      ],
      "stateMutability": "view",
      "type": "function"
    },
    {
      "inputs": [
        {
          "internalType": "uint256",
          "name": "amount",
          "type": "uint256"
        }
      ],
      "name": "deposit",
      "outputs": [
        {
          "internalType": "bool",
          "name": "",
          "type": "bool"
        }
      ],
      "stateMutability": "nonpayable",
      "type": "function"
    },
    {
      "inputs": [
        {
          "internalType": "uint256",
          "name": "amount",
          "type": "uint256"
        }
      ],
      "name": "chargeFees",
      "outputs": [
        {
          "internalType": "bool",
          "name": "",
          "type": "bool"
        }
      ],
      "stateMutability": "nonpayable",
      "type": "function"
    },
    {
      "inputs": [
        {
          "internalType": "uint256",
          "name": "amount",
          "type": "uint256"
        }
      ],
      "name": "withdraw",
      "outputs": [
        {
          "internalType": "bool",
          "name": "",
          "type": "bool"
        }
      ],
      "stateMutability": "nonpayable",
      "type": "function"
    },
    {
      "inputs": [],
      "name": "withdrawAll",
      "outputs": [
        {
          "internalType": "bool",
          "name": "",
          "type": "bool"
        }
      ],
      "stateMutability": "nonpayable",
      "type": "function"
    }
  ],
  "bytecode": "0x60806040523480156200001157600080fd5b506040516200164f3803806200164f833981810160405281019062000037919062000179565b33600160006101000a81548173ffffffffffffffffffffffffffffffffffffffff021916908373ffffffffffffffffffffffffffffffffffffffff160217905550836000806101000a81548173ffffffffffffffffffffffffffffffffffffffff021916908373ffffffffffffffffffffffffffffffffffffffff16021790555082600260006101000a81548173ffffffffffffffffffffffffffffffffffffffff021916908373ffffffffffffffffffffffffffffffffffffffff16021790555081600360006101000a81548173ffffffffffffffffffffffffffffffffffffffff021916908373ffffffffffffffffffffffffffffffffffffffff160217905550806005819055505050505062000262565b6000815190506200015c816200022e565b92915050565b600081519050620001738162000248565b92915050565b6000806000806080858703121562000196576200019562000229565b5b6000620001a6878288016200014b565b9450506020620001b9878288016200014b565b9350506040620001cc878288016200014b565b9250506060620001df8782880162000162565b91505092959194509250565b6000620001f882620001ff565b9050919050565b600073ffffffffffffffffffffffffffffffffffffffff82169050919050565b6000819050919050565b600080fd5b6200023981620001eb565b81146200024557600080fd5b50565b62000253816200021f565b81146200025f57600080fd5b50565b6113dd80620002726000396000f3fe608060405234801561001057600080fd5b50600436106100935760003560e01c8063853828b611610066578063853828b614610134578063b69ef8a814610152578063b6b55f2514610170578063c5bb8758146101a0578063f851a440146101be57610093565b806323bd4d7a146100985780632e1a7d4d146100b657806338af3eed146100e65780636be76ca114610104575b600080fd5b6100a06101dc565b6040516100ad9190610f17565b60405180910390f35b6100d060048036038101906100cb9190610d9b565b610202565b6040516100dd9190610fbb565b60405180910390f35b6100ee610400565b6040516100fb9190610f17565b60405180910390f35b61011e60048036038101906101199190610d9b565b610426565b60405161012b9190610fbb565b60405180910390f35b61013c61070d565b6040516101499190610fbb565b60405180910390f35b61015a61092f565b60405161016791906110b6565b60405180910390f35b61018a60048036038101906101859190610d9b565b610935565b6040516101979190610fbb565b60405180910390f35b6101a8610d03565b6040516101b591906110b6565b60405180910390f35b6101c6610d09565b6040516101d39190610f17565b60405180910390f35b600360009054906101000a900473ffffffffffffffffffffffffffffffffffffffff1681565b6000600160009054906101000a900473ffffffffffffffffffffffffffffffffffffffff1673ffffffffffffffffffffffffffffffffffffffff163373ffffffffffffffffffffffffffffffffffffffff1614610294576040517f08c379a000000000000000000000000000000000000000000000000000000000815260040161028b90611016565b60405180910390fd5b81600454116102d8576040517f08c379a00000000000000000000000000000000000000000000000000000000081526004016102cf90611056565b60405180910390fd5b60008054906101000a900473ffffffffffffffffffffffffffffffffffffffff1673ffffffffffffffffffffffffffffffffffffffff166323b872dd3033856040518463ffffffff1660e01b815260040161033593929190610f5b565b602060405180830381600087803b15801561034f57600080fd5b505af1158015610363573d6000803e3d6000fd5b505050506040513d601f19601f820116820180604052508101906103879190610d6e565b61039057600080fd5b81600460008282546103a29190611138565b925050819055503373ffffffffffffffffffffffffffffffffffffffff167f7fcf532c15f0a6db0bd6d0e038bea71d30d808c7d98cb3bf7268a95bf5081b65836040516103ef91906110b6565b60405180910390a260019050919050565b600260009054906101000a900473ffffffffffffffffffffffffffffffffffffffff1681565b6000600360009054906101000a900473ffffffffffffffffffffffffffffffffffffffff1673ffffffffffffffffffffffffffffffffffffffff163373ffffffffffffffffffffffffffffffffffffffff16146104b8576040517f08c379a00000000000000000000000000000000000000000000000000000000081526004016104af90611076565b60405180910390fd5b81600454116104fc576040517f08c379a00000000000000000000000000000000000000000000000000000000081526004016104f390611056565b60405180910390fd5b60008054906101000a900473ffffffffffffffffffffffffffffffffffffffff1673ffffffffffffffffffffffffffffffffffffffff1663a9059cbb33846040518363ffffffff1660e01b8152600401610557929190610f92565b602060405180830381600087803b15801561057157600080fd5b505af1158015610585573d6000803e3d6000fd5b505050506040513d601f19601f820116820180604052508101906105a99190610d6e565b6105e8576040517f08c379a00000000000000000000000000000000000000000000000000000000081526004016105df90610fd6565b60405180910390fd5b81600460008282546105fa9190611138565b92505081905550600360009054906101000a900473ffffffffffffffffffffffffffffffffffffffff1673ffffffffffffffffffffffffffffffffffffffff163073ffffffffffffffffffffffffffffffffffffffff167f8ed7db30df47fbd87811a5e8a95a94838f0c0241263d9a1865d6a2a3e10516e28460405161068091906110b6565b60405180910390a36005546004541161070457600160009054906101000a900473ffffffffffffffffffffffffffffffffffffffff1673ffffffffffffffffffffffffffffffffffffffff167f6e7a4e5f021ee43065c6892a84e7ac4bcb9de8b465d65f6be634acf2193bac86476040516106fb91906110b6565b60405180910390a25b60019050919050565b6000600160009054906101000a900473ffffffffffffffffffffffffffffffffffffffff1673ffffffffffffffffffffffffffffffffffffffff163373ffffffffffffffffffffffffffffffffffffffff161461079f576040517f08c379a000000000000000000000000000000000000000000000000000000000815260040161079690611016565b60405180910390fd5b6000600454116107e4576040517f08c379a00000000000000000000000000000000000000000000000000000000081526004016107db90611096565b60405180910390fd5b60008054906101000a900473ffffffffffffffffffffffffffffffffffffffff1673ffffffffffffffffffffffffffffffffffffffff166323b872dd3033476040518463ffffffff1660e01b815260040161084193929190610f5b565b602060405180830381600087803b15801561085b57600080fd5b505af115801561086f573d6000803e3d6000fd5b505050506040513d601f19601f820116820180604052508101906108939190610d6e565b6108d2576040517f08c379a00000000000000000000000000000000000000000000000000000000081526004016108c990611056565b60405180910390fd5b60006004819055503373ffffffffffffffffffffffffffffffffffffffff167f7fcf532c15f0a6db0bd6d0e038bea71d30d808c7d98cb3bf7268a95bf5081b654760405161092091906110b6565b60405180910390a26001905090565b60045481565b6000600160009054906101000a900473ffffffffffffffffffffffffffffffffffffffff1673ffffffffffffffffffffffffffffffffffffffff163373ffffffffffffffffffffffffffffffffffffffff16146109c7576040517f08c379a00000000000000000000000000000000000000000000000000000000081526004016109be90611016565b60405180910390fd5b6005548211610a0b576040517f08c379a0000000000000000000000000000000000000000000000000000000008152600401610a0290610ff6565b60405180910390fd5b8160008054906101000a900473ffffffffffffffffffffffffffffffffffffffff1673ffffffffffffffffffffffffffffffffffffffff1663dd62ed3e33306040518363ffffffff1660e01b8152600401610a67929190610f32565b60206040518083038186803b158015610a7f57600080fd5b505afa158015610a93573d6000803e3d6000fd5b505050506040513d601f19601f82011682018060405250810190610ab79190610dc8565b1015610af8576040517f08c379a0000000000000000000000000000000000000000000000000000000008152600401610aef90611036565b60405180910390fd5b8160008054906101000a900473ffffffffffffffffffffffffffffffffffffffff1673ffffffffffffffffffffffffffffffffffffffff166370a08231336040518263ffffffff1660e01b8152600401610b529190610f17565b60206040518083038186803b158015610b6a57600080fd5b505afa158015610b7e573d6000803e3d6000fd5b505050506040513d601f19601f82011682018060405250810190610ba29190610dc8565b1015610be3576040517f08c379a0000000000000000000000000000000000000000000000000000000008152600401610bda90611056565b60405180910390fd5b60008054906101000a900473ffffffffffffffffffffffffffffffffffffffff1673ffffffffffffffffffffffffffffffffffffffff166323b872dd3330856040518463ffffffff1660e01b8152600401610c4093929190610f5b565b602060405180830381600087803b158015610c5a57600080fd5b505af1158015610c6e573d6000803e3d6000fd5b505050506040513d601f19601f82011682018060405250810190610c929190610d6e565b508160046000828254610ca591906110e2565b925050819055503373ffffffffffffffffffffffffffffffffffffffff167fe1fffcc4923d04b559f4d29a8bfc6cda04eb5b0d3c460751c2402c5c5cc9109c83604051610cf291906110b6565b60405180910390a260019050919050565b60055481565b600160009054906101000a900473ffffffffffffffffffffffffffffffffffffffff1681565b600081519050610d3e81611379565b92915050565b600081359050610d5381611390565b92915050565b600081519050610d6881611390565b92915050565b600060208284031215610d8457610d836111e3565b5b6000610d9284828501610d2f565b91505092915050565b600060208284031215610db157610db06111e3565b5b6000610dbf84828501610d44565b91505092915050565b600060208284031215610dde57610ddd6111e3565b5b6000610dec84828501610d59565b91505092915050565b610dfe8161116c565b82525050565b610e0d8161117e565b82525050565b6000610e20601a836110d1565b9150610e2b826111e8565b602082019050919050565b6000610e43602c836110d1565b9150610e4e82611211565b604082019050919050565b6000610e666025836110d1565b9150610e7182611260565b604082019050919050565b6000610e896016836110d1565b9150610e94826112af565b602082019050919050565b6000610eac6014836110d1565b9150610eb7826112d8565b602082019050919050565b6000610ecf602c836110d1565b9150610eda82611301565b604082019050919050565b6000610ef26013836110d1565b9150610efd82611350565b602082019050919050565b610f11816111aa565b82525050565b6000602082019050610f2c6000830184610df5565b92915050565b6000604082019050610f476000830185610df5565b610f546020830184610df5565b9392505050565b6000606082019050610f706000830186610df5565b610f7d6020830185610df5565b610f8a6040830184610f08565b949350505050565b6000604082019050610fa76000830185610df5565b610fb46020830184610f08565b9392505050565b6000602082019050610fd06000830184610e04565b92915050565b60006020820190508181036000830152610fef81610e13565b9050919050565b6000602082019050818103600083015261100f81610e36565b9050919050565b6000602082019050818103600083015261102f81610e59565b9050919050565b6000602082019050818103600083015261104f81610e7c565b9050919050565b6000602082019050818103600083015261106f81610e9f565b9050919050565b6000602082019050818103600083015261108f81610ec2565b9050919050565b600060208201905081810360008301526110af81610ee5565b9050919050565b60006020820190506110cb6000830184610f08565b92915050565b600082825260208201905092915050565b60006110ed826111aa565b91506110f8836111aa565b9250827fffffffffffffffffffffffffffffffffffffffffffffffffffffffffffffffff0382111561112d5761112c6111b4565b5b828201905092915050565b6000611143826111aa565b915061114e836111aa565b925082821015611161576111606111b4565b5b828203905092915050565b60006111778261118a565b9050919050565b60008115159050919050565b600073ffffffffffffffffffffffffffffffffffffffff82169050919050565b6000819050919050565b7f4e487b7100000000000000000000000000000000000000000000000000000000600052601160045260246000fd5b600080fd5b7f556e61626c6520746f20636f6d706c657465207061796d656e74000000000000600082015250565b7f4465706f736974206d7573742062652067726561746572207468616e2074686560008201527f206d696e2062616c616e63650000000000000000000000000000000000000000602082015250565b7f4f6e6c79207468652061646d696e2063616e2063616c6c20746869732066756e60008201527f6374696f6e000000000000000000000000000000000000000000000000000000602082015250565b7f496e73756666696369656e7420616c6c6f77616e636500000000000000000000600082015250565b7f496e73756666696369656e742062616c616e6365000000000000000000000000600082015250565b7f4f6e6c7920746865206f7267616e697a6174696f6e2063616e2063616c6c207460008201527f6869732066756e6374696f6e0000000000000000000000000000000000000000602082015250565b7f5468657265206973206e6f2062616c616e636500000000000000000000000000600082015250565b6113828161117e565b811461138d57600080fd5b50565b611399816111aa565b81146113a457600080fd5b5056fea2646970667358221220cb4da740a5728b4360be0552bd7899d0be5f102b288f09ee71f85ea9939e755e64736f6c63430008070033",
  "immutableReferences": {},
  "source": "// SPDX-License-Identifier: MIT\npragma solidity ^0.8.0;\n\nimport \"./Vibra.sol\";\n\ncontract Trust {\n    Vibra private vibra;\n    address public admin;\n    address public beneficiary;\n    address public organization;\n    uint256 public balance;\n    uint256 public minBalance;\n\n    modifier onlyAdmin() {\n        require(\n            msg.sender == admin,\n            \"Only the admin can call this function\"\n        );\n        _;\n    }\n\n    modifier onlyBeneficiary() {\n        require(\n            msg.sender == beneficiary,\n            \"Only the beneficiary can call this function\"\n        );\n        _;\n    }\n\n    modifier onlyOrganization() {\n        require(\n            msg.sender == organization,\n            \"Only the organization can call this function\"\n        );\n        _;\n    }\n\n    event Payment(address indexed _from, address indexed _to, uint256 _amount);\n    event Deposit(address indexed _from, uint256 _amount);\n    event Withdrawal(address indexed _to, uint256 _amount);\n    event LowBalance(address indexed _holder, uint256 _balance);\n\n    constructor(\n        address _vibra,\n        address _beneficiary,\n        address _organization,\n        uint256 _minBalance\n    ) {\n        admin = msg.sender;\n        vibra = Vibra(_vibra);\n        beneficiary = _beneficiary;\n        organization = _organization;\n        minBalance = _minBalance;\n    }\n\n    function deposit(uint256 amount) public onlyAdmin returns (bool) {\n        require(\n            amount > minBalance,\n            \"Deposit must be greater than the min balance\"\n        );\n        require(\n            vibra.allowance(msg.sender, address(this)) >= amount,\n            \"Insufficient allowance\"\n        );\n        require(vibra.balanceOf(msg.sender) >= amount, \"Insufficient balance\");\n\n        vibra.transferFrom(msg.sender, address(this), amount);\n\n        balance += amount;\n        emit Deposit(msg.sender, amount);\n        return true;\n    }\n\n    function chargeFees(uint256 amount) public onlyOrganization returns (bool) {\n        require(balance > amount, \"Insufficient balance\");\n        require(\n            vibra.transfer(msg.sender, amount),\n            \"Unable to complete payment\"\n        );\n\n        balance -= amount;\n        emit Payment(address(this), organization, amount);\n\n        if (balance <= minBalance) {\n            emit LowBalance(admin, address(this).balance);\n        }\n        return true;\n    }\n\n    function withdraw(uint256 amount) public onlyAdmin returns (bool) {\n        require(balance > amount, \"Insufficient balance\");\n        require(vibra.transferFrom(address(this), msg.sender, amount));\n\n        balance -= amount;\n        emit Withdrawal(msg.sender, amount);\n        return true;\n    }\n\n    function withdrawAll() public onlyAdmin returns (bool) {\n        require(balance > 0, \"There is no balance\");\n        require(\n            vibra.transferFrom(\n                address(this),\n                msg.sender,\n                address(this).balance\n            ),\n            \"Insufficient balance\"\n        );\n\n        balance = 0;\n        emit Withdrawal(msg.sender, address(this).balance);\n        return true;\n    }\n}\n",
  "sourcePath": "/Users/angelicacolon/Desktop/Vibra-Finance/vibra-contracts/contracts/Trust.sol",
  "compiler": {
    "name": "solc",
    "version": "0.8.7+commit.e28d00a7.Emscripten.clang"
  },
  "schemaVersion": "3.4.1",
  "updatedAt": "2021-08-11T23:23:42.166Z",
  "devdoc": {
    "kind": "dev",
    "methods": {},
    "version": 1
  },
  "userdoc": {
    "kind": "user",
    "methods": {},
    "version": 1
  }
}