{
  "contractName": "Trust",
  "abi": [
    {
      "inputs": [
        {
          "internalType": "address",
          "name": "_vibra",
          "type": "address"
        },
        {
          "internalType": "address",
          "name": "_beneficiary",
          "type": "address"
        },
        {
          "internalType": "address",
          "name": "_organization",
          "type": "address"
        },
        {
          "internalType": "uint256",
          "name": "_deposit",
          "type": "uint256"
        }
      ],
      "stateMutability": "nonpayable",
      "type": "constructor"
    },
    {
      "anonymous": false,
      "inputs": [
        {
          "indexed": true,
          "internalType": "address",
          "name": "_from",
          "type": "address"
        },
        {
          "indexed": false,
          "internalType": "uint256",
          "name": "_amount",
          "type": "uint256"
        }
      ],
      "name": "Deposit",
      "type": "event"
    },
    {
      "anonymous": false,
      "inputs": [
        {
          "indexed": true,
          "internalType": "address",
          "name": "_from",
          "type": "address"
        },
        {
          "indexed": true,
          "internalType": "address",
          "name": "_to",
          "type": "address"
        },
        {
          "indexed": false,
          "internalType": "uint256",
          "name": "_amount",
          "type": "uint256"
        }
      ],
      "name": "Payment",
      "type": "event"
    },
    {
      "anonymous": false,
      "inputs": [
        {
          "indexed": true,
          "internalType": "address",
          "name": "_to",
          "type": "address"
        },
        {
          "indexed": false,
          "internalType": "uint256",
          "name": "_amount",
          "type": "uint256"
        }
      ],
      "name": "Withdrawal",
      "type": "event"
    },
    {
      "inputs": [],
      "name": "admin",
      "outputs": [
        {
          "internalType": "address",
          "name": "",
          "type": "address"
        }
      ],
      "stateMutability": "view",
      "type": "function"
    },
    {
      "inputs": [],
      "name": "balance",
      "outputs": [
        {
          "internalType": "uint256",
          "name": "",
          "type": "uint256"
        }
      ],
      "stateMutability": "view",
      "type": "function"
    },
    {
      "inputs": [],
      "name": "beneficiary",
      "outputs": [
        {
          "internalType": "address",
          "name": "",
          "type": "address"
        }
      ],
      "stateMutability": "view",
      "type": "function"
    },
    {
      "inputs": [],
      "name": "organization",
      "outputs": [
        {
          "internalType": "address",
          "name": "",
          "type": "address"
        }
      ],
      "stateMutability": "view",
      "type": "function"
    },
    {
      "inputs": [
        {
          "internalType": "uint256",
          "name": "amount",
          "type": "uint256"
        }
      ],
      "name": "deposit",
      "outputs": [
        {
          "internalType": "bool",
          "name": "",
          "type": "bool"
        }
      ],
      "stateMutability": "nonpayable",
      "type": "function"
    },
    {
      "inputs": [
        {
          "internalType": "uint256",
          "name": "amount",
          "type": "uint256"
        }
      ],
      "name": "payFees",
      "outputs": [
        {
          "internalType": "bool",
          "name": "",
          "type": "bool"
        }
      ],
      "stateMutability": "nonpayable",
      "type": "function"
    },
    {
      "inputs": [
        {
          "internalType": "uint256",
          "name": "amount",
          "type": "uint256"
        }
      ],
      "name": "withdraw",
      "outputs": [
        {
          "internalType": "bool",
          "name": "",
          "type": "bool"
        }
      ],
      "stateMutability": "nonpayable",
      "type": "function"
    },
    {
      "inputs": [],
      "name": "withdrawAll",
      "outputs": [
        {
          "internalType": "bool",
          "name": "",
          "type": "bool"
        }
      ],
      "stateMutability": "nonpayable",
      "type": "function"
    }
  ],
  "bytecode": "0x60806040523480156200001157600080fd5b50604051620012cb380380620012cb833981810160405281019062000037919062000179565b33600160006101000a81548173ffffffffffffffffffffffffffffffffffffffff021916908373ffffffffffffffffffffffffffffffffffffffff160217905550836000806101000a81548173ffffffffffffffffffffffffffffffffffffffff021916908373ffffffffffffffffffffffffffffffffffffffff16021790555082600260006101000a81548173ffffffffffffffffffffffffffffffffffffffff021916908373ffffffffffffffffffffffffffffffffffffffff16021790555081600360006101000a81548173ffffffffffffffffffffffffffffffffffffffff021916908373ffffffffffffffffffffffffffffffffffffffff160217905550806004819055505050505062000262565b6000815190506200015c816200022e565b92915050565b600081519050620001738162000248565b92915050565b6000806000806080858703121562000196576200019562000229565b5b6000620001a6878288016200014b565b9450506020620001b9878288016200014b565b9350506040620001cc878288016200014b565b9250506060620001df8782880162000162565b91505092959194509250565b6000620001f882620001ff565b9050919050565b600073ffffffffffffffffffffffffffffffffffffffff82169050919050565b6000819050919050565b600080fd5b6200023981620001eb565b81146200024557600080fd5b50565b62000253816200021f565b81146200025f57600080fd5b50565b61105980620002726000396000f3fe608060405234801561001057600080fd5b50600436106100885760003560e01c8063853828b61161005b578063853828b614610129578063b69ef8a814610147578063b6b55f2514610165578063f851a4401461019557610088565b806323bd4d7a1461008d5780632e1a7d4d146100ab5780633084d735146100db57806338af3eed1461010b575b600080fd5b6100956101b3565b6040516100a29190610d09565b60405180910390f35b6100c560048036038101906100c09190610bf6565b6101d9565b6040516100d29190610d84565b60405180910390f35b6100f560048036038101906100f09190610bf6565b6103a1565b6040516101029190610d84565b60405180910390f35b6101136105fa565b6040516101209190610d09565b60405180910390f35b610131610620565b60405161013e9190610d84565b60405180910390f35b61014f61080c565b60405161015c9190610e1f565b60405180910390f35b61017f600480360381019061017a9190610bf6565b610812565b60405161018c9190610d84565b60405180910390f35b61019d610b64565b6040516101aa9190610d09565b60405180910390f35b600360009054906101000a900473ffffffffffffffffffffffffffffffffffffffff1681565b6000600160009054906101000a900473ffffffffffffffffffffffffffffffffffffffff1673ffffffffffffffffffffffffffffffffffffffff163373ffffffffffffffffffffffffffffffffffffffff161461023557600080fd5b8160045411610279576040517f08c379a000000000000000000000000000000000000000000000000000000000815260040161027090610ddf565b60405180910390fd5b60008054906101000a900473ffffffffffffffffffffffffffffffffffffffff1673ffffffffffffffffffffffffffffffffffffffff166323b872dd3033856040518463ffffffff1660e01b81526004016102d693929190610d4d565b602060405180830381600087803b1580156102f057600080fd5b505af1158015610304573d6000803e3d6000fd5b505050506040513d601f19601f820116820180604052508101906103289190610bc9565b61033157600080fd5b81600460008282546103439190610ea1565b925050819055503373ffffffffffffffffffffffffffffffffffffffff167f7fcf532c15f0a6db0bd6d0e038bea71d30d808c7d98cb3bf7268a95bf5081b65836040516103909190610e1f565b60405180910390a260019050919050565b6000600160009054906101000a900473ffffffffffffffffffffffffffffffffffffffff1673ffffffffffffffffffffffffffffffffffffffff163373ffffffffffffffffffffffffffffffffffffffff16146103fd57600080fd5b8160045411610441576040517f08c379a000000000000000000000000000000000000000000000000000000000815260040161043890610ddf565b60405180910390fd5b60008054906101000a900473ffffffffffffffffffffffffffffffffffffffff1673ffffffffffffffffffffffffffffffffffffffff166323b872dd30600360009054906101000a900473ffffffffffffffffffffffffffffffffffffffff16856040518463ffffffff1660e01b81526004016104c093929190610d4d565b602060405180830381600087803b1580156104da57600080fd5b505af11580156104ee573d6000803e3d6000fd5b505050506040513d601f19601f820116820180604052508101906105129190610bc9565b610551576040517f08c379a000000000000000000000000000000000000000000000000000000000815260040161054890610d9f565b60405180910390fd5b81600460008282546105639190610ea1565b92505081905550600360009054906101000a900473ffffffffffffffffffffffffffffffffffffffff1673ffffffffffffffffffffffffffffffffffffffff163373ffffffffffffffffffffffffffffffffffffffff167f8ed7db30df47fbd87811a5e8a95a94838f0c0241263d9a1865d6a2a3e10516e2846040516105e99190610e1f565b60405180910390a360019050919050565b600260009054906101000a900473ffffffffffffffffffffffffffffffffffffffff1681565b6000600160009054906101000a900473ffffffffffffffffffffffffffffffffffffffff1673ffffffffffffffffffffffffffffffffffffffff163373ffffffffffffffffffffffffffffffffffffffff161461067c57600080fd5b6000600454116106c1576040517f08c379a00000000000000000000000000000000000000000000000000000000081526004016106b890610dff565b60405180910390fd5b60008054906101000a900473ffffffffffffffffffffffffffffffffffffffff1673ffffffffffffffffffffffffffffffffffffffff166323b872dd3033476040518463ffffffff1660e01b815260040161071e93929190610d4d565b602060405180830381600087803b15801561073857600080fd5b505af115801561074c573d6000803e3d6000fd5b505050506040513d601f19601f820116820180604052508101906107709190610bc9565b6107af576040517f08c379a00000000000000000000000000000000000000000000000000000000081526004016107a690610ddf565b60405180910390fd5b60006004819055503373ffffffffffffffffffffffffffffffffffffffff167f7fcf532c15f0a6db0bd6d0e038bea71d30d808c7d98cb3bf7268a95bf5081b65476040516107fd9190610e1f565b60405180910390a26001905090565b60045481565b6000600160009054906101000a900473ffffffffffffffffffffffffffffffffffffffff1673ffffffffffffffffffffffffffffffffffffffff163373ffffffffffffffffffffffffffffffffffffffff161461086e57600080fd5b8160008054906101000a900473ffffffffffffffffffffffffffffffffffffffff1673ffffffffffffffffffffffffffffffffffffffff1663dd62ed3e33306040518363ffffffff1660e01b81526004016108ca929190610d24565b60206040518083038186803b1580156108e257600080fd5b505afa1580156108f6573d6000803e3d6000fd5b505050506040513d601f19601f8201168201806040525081019061091a9190610c23565b1161095a576040517f08c379a000000000000000000000000000000000000000000000000000000000815260040161095190610dbf565b60405180910390fd5b8160008054906101000a900473ffffffffffffffffffffffffffffffffffffffff1673ffffffffffffffffffffffffffffffffffffffff166370a08231336040518263ffffffff1660e01b81526004016109b49190610d09565b60206040518083038186803b1580156109cc57600080fd5b505afa1580156109e0573d6000803e3d6000fd5b505050506040513d601f19601f82011682018060405250810190610a049190610c23565b11610a44576040517f08c379a0000000000000000000000000000000000000000000000000000000008152600401610a3b90610ddf565b60405180910390fd5b60008054906101000a900473ffffffffffffffffffffffffffffffffffffffff1673ffffffffffffffffffffffffffffffffffffffff166323b872dd3330856040518463ffffffff1660e01b8152600401610aa193929190610d4d565b602060405180830381600087803b158015610abb57600080fd5b505af1158015610acf573d6000803e3d6000fd5b505050506040513d601f19601f82011682018060405250810190610af39190610bc9565b508160046000828254610b069190610e4b565b925050819055503373ffffffffffffffffffffffffffffffffffffffff167fe1fffcc4923d04b559f4d29a8bfc6cda04eb5b0d3c460751c2402c5c5cc9109c83604051610b539190610e1f565b60405180910390a260019050919050565b600160009054906101000a900473ffffffffffffffffffffffffffffffffffffffff1681565b600081519050610b9981610ff5565b92915050565b600081359050610bae8161100c565b92915050565b600081519050610bc38161100c565b92915050565b600060208284031215610bdf57610bde610f4c565b5b6000610bed84828501610b8a565b91505092915050565b600060208284031215610c0c57610c0b610f4c565b5b6000610c1a84828501610b9f565b91505092915050565b600060208284031215610c3957610c38610f4c565b5b6000610c4784828501610bb4565b91505092915050565b610c5981610ed5565b82525050565b610c6881610ee7565b82525050565b6000610c7b601a83610e3a565b9150610c8682610f51565b602082019050919050565b6000610c9e601683610e3a565b9150610ca982610f7a565b602082019050919050565b6000610cc1601483610e3a565b9150610ccc82610fa3565b602082019050919050565b6000610ce4601383610e3a565b9150610cef82610fcc565b602082019050919050565b610d0381610f13565b82525050565b6000602082019050610d1e6000830184610c50565b92915050565b6000604082019050610d396000830185610c50565b610d466020830184610c50565b9392505050565b6000606082019050610d626000830186610c50565b610d6f6020830185610c50565b610d7c6040830184610cfa565b949350505050565b6000602082019050610d996000830184610c5f565b92915050565b60006020820190508181036000830152610db881610c6e565b9050919050565b60006020820190508181036000830152610dd881610c91565b9050919050565b60006020820190508181036000830152610df881610cb4565b9050919050565b60006020820190508181036000830152610e1881610cd7565b9050919050565b6000602082019050610e346000830184610cfa565b92915050565b600082825260208201905092915050565b6000610e5682610f13565b9150610e6183610f13565b9250827fffffffffffffffffffffffffffffffffffffffffffffffffffffffffffffffff03821115610e9657610e95610f1d565b5b828201905092915050565b6000610eac82610f13565b9150610eb783610f13565b925082821015610eca57610ec9610f1d565b5b828203905092915050565b6000610ee082610ef3565b9050919050565b60008115159050919050565b600073ffffffffffffffffffffffffffffffffffffffff82169050919050565b6000819050919050565b7f4e487b7100000000000000000000000000000000000000000000000000000000600052601160045260246000fd5b600080fd5b7f556e61626c6520746f20636f6d706c657465207061796d656e74000000000000600082015250565b7f496e73756666696369656e7420616c6c6f77616e636500000000000000000000600082015250565b7f496e73756666696369656e742062616c616e6365000000000000000000000000600082015250565b7f5468657265206973206e6f2062616c616e636500000000000000000000000000600082015250565b610ffe81610ee7565b811461100957600080fd5b50565b61101581610f13565b811461102057600080fd5b5056fea2646970667358221220b080d6e49ca00028162adf5cb9a0f7bc5aaa935319285e75c4e194df21bb7ea264736f6c63430008060033",
  "immutableReferences": {},
  "source": "// SPDX-License-Identifier: MIT\npragma solidity ^0.8.0;\n\nimport \"./Vibra.sol\";\n\ncontract Trust {\n    Vibra private vibra;\n    address public admin;\n    address public beneficiary;\n    address public organization;\n    uint256 public balance;\n\n    modifier onlyAdmin() {\n        require(msg.sender == admin);\n        _;\n    }\n\n    event Payment(address indexed _from, address indexed _to, uint256 _amount);\n    event Deposit(address indexed _from, uint256 _amount);\n    event Withdrawal(address indexed _to, uint256 _amount);\n\n    constructor(address _vibra, address _beneficiary, address _organization, uint256 _deposit) {\n        admin = msg.sender;\n        vibra = Vibra(_vibra);\n        beneficiary = _beneficiary;\n        organization = _organization;\n        balance = _deposit;\n    } \n\n    function deposit(uint256 amount) public onlyAdmin returns (bool) {\n        require(vibra.allowance(msg.sender, address(this)) > amount, \"Insufficient allowance\");\n        require(vibra.balanceOf(msg.sender) > amount, \"Insufficient balance\");\n\n        vibra.transferFrom(msg.sender, address(this), amount);\n\n        balance += amount;\n        emit Deposit(msg.sender, amount);\n        return true;\n    }\n\n    function payFees(uint256 amount) public onlyAdmin returns (bool) {\n        require(balance > amount, \"Insufficient balance\");\n        require(vibra.transferFrom(address(this), organization, amount), \"Unable to complete payment\");\n\n        balance -= amount;\n        emit Payment(msg.sender, organization, amount);\n        return true;\n    }\n\n    function withdraw(uint256 amount) public onlyAdmin returns (bool) {\n        require(balance > amount, \"Insufficient balance\");\n        require(vibra.transferFrom(address(this), msg.sender, amount));\n\n        balance -= amount;\n        emit Withdrawal(msg.sender, amount);\n        return true;\n    }\n\n    function withdrawAll() public onlyAdmin returns (bool) {\n        require(balance > 0, \"There is no balance\");\n        require(vibra.transferFrom(address(this), msg.sender, address(this).balance), \"Insufficient balance\");\n\n        balance = 0;\n        emit Withdrawal(msg.sender, address(this).balance);\n        return true;\n    }\n\n}",
  "sourcePath": "/Users/serpiente/Development/JavaScript/Projects/Blockchain/Vibra-Finance/vibra-contracts/contracts/Trust.sol",
  "compiler": {
    "name": "solc",
    "version": "0.8.6+commit.11564f7e.Emscripten.clang"
  },
  "schemaVersion": "3.4.1",
  "updatedAt": "2021-08-11T02:53:23.882Z",
  "devdoc": {
    "kind": "dev",
    "methods": {},
    "version": 1
  },
  "userdoc": {
    "kind": "user",
    "methods": {},
    "version": 1
  }
}